{
  "contractName": "RealEstateEscrow",
  "abi": [
    {
      "inputs": [],
      "stateMutability": "nonpayable",
      "type": "constructor"
    },
    {
      "anonymous": false,
      "inputs": [
        {
          "indexed": true,
          "internalType": "address",
          "name": "owner",
          "type": "address"
        },
        {
          "indexed": true,
          "internalType": "address",
          "name": "approved",
          "type": "address"
        },
        {
          "indexed": true,
          "internalType": "uint256",
          "name": "tokenId",
          "type": "uint256"
        }
      ],
      "name": "Approval",
      "type": "event"
    },
    {
      "anonymous": false,
      "inputs": [
        {
          "indexed": true,
          "internalType": "address",
          "name": "owner",
          "type": "address"
        },
        {
          "indexed": true,
          "internalType": "address",
          "name": "operator",
          "type": "address"
        },
        {
          "indexed": false,
          "internalType": "bool",
          "name": "approved",
          "type": "bool"
        }
      ],
      "name": "ApprovalForAll",
      "type": "event"
    },
    {
      "anonymous": false,
      "inputs": [
        {
          "indexed": true,
          "internalType": "address",
          "name": "from",
          "type": "address"
        },
        {
          "indexed": true,
          "internalType": "address",
          "name": "to",
          "type": "address"
        },
        {
          "indexed": true,
          "internalType": "uint256",
          "name": "tokenId",
          "type": "uint256"
        }
      ],
      "name": "Transfer",
      "type": "event"
    },
    {
      "inputs": [
        {
          "internalType": "address",
          "name": "to",
          "type": "address"
        },
        {
          "internalType": "uint256",
          "name": "tokenId",
          "type": "uint256"
        }
      ],
      "name": "approve",
      "outputs": [],
      "stateMutability": "nonpayable",
      "type": "function"
    },
    {
      "inputs": [
        {
          "internalType": "address",
          "name": "owner",
          "type": "address"
        }
      ],
      "name": "balanceOf",
      "outputs": [
        {
          "internalType": "uint256",
          "name": "",
          "type": "uint256"
        }
      ],
      "stateMutability": "view",
      "type": "function",
      "constant": true
    },
    {
      "inputs": [
        {
          "internalType": "uint256",
          "name": "tokenId",
          "type": "uint256"
        }
      ],
      "name": "getApproved",
      "outputs": [
        {
          "internalType": "address",
          "name": "",
          "type": "address"
        }
      ],
      "stateMutability": "view",
      "type": "function",
      "constant": true
    },
    {
      "inputs": [
        {
          "internalType": "address",
          "name": "owner",
          "type": "address"
        },
        {
          "internalType": "address",
          "name": "operator",
          "type": "address"
        }
      ],
      "name": "isApprovedForAll",
      "outputs": [
        {
          "internalType": "bool",
          "name": "",
          "type": "bool"
        }
      ],
      "stateMutability": "view",
      "type": "function",
      "constant": true
    },
    {
      "inputs": [
        {
          "internalType": "uint256",
          "name": "",
          "type": "uint256"
        }
      ],
      "name": "listings",
      "outputs": [
        {
          "internalType": "uint256",
          "name": "price",
          "type": "uint256"
        },
        {
          "internalType": "bool",
          "name": "isListed",
          "type": "bool"
        },
        {
          "internalType": "address",
          "name": "buyer",
          "type": "address"
        },
        {
          "internalType": "bool",
          "name": "inspectionPassed",
          "type": "bool"
        }
      ],
      "stateMutability": "view",
      "type": "function",
      "constant": true
    },
    {
      "inputs": [],
      "name": "manager",
      "outputs": [
        {
          "internalType": "address",
          "name": "",
          "type": "address"
        }
      ],
      "stateMutability": "view",
      "type": "function",
      "constant": true
    },
    {
      "inputs": [],
      "name": "name",
      "outputs": [
        {
          "internalType": "string",
          "name": "",
          "type": "string"
        }
      ],
      "stateMutability": "view",
      "type": "function",
      "constant": true
    },
    {
      "inputs": [
        {
          "internalType": "uint256",
          "name": "tokenId",
          "type": "uint256"
        }
      ],
      "name": "ownerOf",
      "outputs": [
        {
          "internalType": "address",
          "name": "",
          "type": "address"
        }
      ],
      "stateMutability": "view",
      "type": "function",
      "constant": true
    },
    {
      "inputs": [
        {
          "internalType": "address",
          "name": "from",
          "type": "address"
        },
        {
          "internalType": "address",
          "name": "to",
          "type": "address"
        },
        {
          "internalType": "uint256",
          "name": "tokenId",
          "type": "uint256"
        }
      ],
      "name": "safeTransferFrom",
      "outputs": [],
      "stateMutability": "nonpayable",
      "type": "function"
    },
    {
      "inputs": [
        {
          "internalType": "address",
          "name": "from",
          "type": "address"
        },
        {
          "internalType": "address",
          "name": "to",
          "type": "address"
        },
        {
          "internalType": "uint256",
          "name": "tokenId",
          "type": "uint256"
        },
        {
          "internalType": "bytes",
          "name": "data",
          "type": "bytes"
        }
      ],
      "name": "safeTransferFrom",
      "outputs": [],
      "stateMutability": "nonpayable",
      "type": "function"
    },
    {
      "inputs": [
        {
          "internalType": "address",
          "name": "operator",
          "type": "address"
        },
        {
          "internalType": "bool",
          "name": "approved",
          "type": "bool"
        }
      ],
      "name": "setApprovalForAll",
      "outputs": [],
      "stateMutability": "nonpayable",
      "type": "function"
    },
    {
      "inputs": [
        {
          "internalType": "bytes4",
          "name": "interfaceId",
          "type": "bytes4"
        }
      ],
      "name": "supportsInterface",
      "outputs": [
        {
          "internalType": "bool",
          "name": "",
          "type": "bool"
        }
      ],
      "stateMutability": "view",
      "type": "function",
      "constant": true
    },
    {
      "inputs": [],
      "name": "symbol",
      "outputs": [
        {
          "internalType": "string",
          "name": "",
          "type": "string"
        }
      ],
      "stateMutability": "view",
      "type": "function",
      "constant": true
    },
    {
      "inputs": [
        {
          "internalType": "uint256",
          "name": "tokenId",
          "type": "uint256"
        }
      ],
      "name": "tokenURI",
      "outputs": [
        {
          "internalType": "string",
          "name": "",
          "type": "string"
        }
      ],
      "stateMutability": "view",
      "type": "function",
      "constant": true
    },
    {
      "inputs": [],
      "name": "totalSupply",
      "outputs": [
        {
          "internalType": "uint256",
          "name": "",
          "type": "uint256"
        }
      ],
      "stateMutability": "view",
      "type": "function",
      "constant": true
    },
    {
      "inputs": [
        {
          "internalType": "address",
          "name": "from",
          "type": "address"
        },
        {
          "internalType": "address",
          "name": "to",
          "type": "address"
        },
        {
          "internalType": "uint256",
          "name": "tokenId",
          "type": "uint256"
        }
      ],
      "name": "transferFrom",
      "outputs": [],
      "stateMutability": "nonpayable",
      "type": "function"
    },
    {
      "inputs": [
        {
          "internalType": "address",
          "name": "to",
          "type": "address"
        },
        {
          "internalType": "uint256",
          "name": "tokenId",
          "type": "uint256"
        }
      ],
      "name": "mint",
      "outputs": [],
      "stateMutability": "nonpayable",
      "type": "function"
    },
    {
      "inputs": [
        {
          "internalType": "uint256",
          "name": "tokenId",
          "type": "uint256"
        },
        {
          "internalType": "uint256",
          "name": "price",
          "type": "uint256"
        }
      ],
      "name": "listProperty",
      "outputs": [],
      "stateMutability": "nonpayable",
      "type": "function"
    },
    {
      "inputs": [
        {
          "internalType": "uint256",
          "name": "tokenId",
          "type": "uint256"
        }
      ],
      "name": "buyProperty",
      "outputs": [],
      "stateMutability": "payable",
      "type": "function",
      "payable": true
    },
    {
      "inputs": [
        {
          "internalType": "uint256",
          "name": "tokenId",
          "type": "uint256"
        },
        {
          "internalType": "bool",
          "name": "passed",
          "type": "bool"
        }
      ],
      "name": "setInspectionStatus",
      "outputs": [],
      "stateMutability": "nonpayable",
      "type": "function"
    }
  ],
  "bytecode": "0x60806040523480156200001157600080fd5b506040518060400160405280600b81526020017f5265616c204573746174650000000000000000000000000000000000000000008152506040518060400160405280600481526020017f5245414c00000000000000000000000000000000000000000000000000000000815250816000908051906020019062000096929190620000f9565b508060019080519060200190620000af929190620000f9565b50505033600760006101000a81548173ffffffffffffffffffffffffffffffffffffffff021916908373ffffffffffffffffffffffffffffffffffffffff1602179055506200020e565b8280546200010790620001a9565b90600052602060002090601f0160209004810192826200012b576000855562000177565b82601f106200014657805160ff191683800117855562000177565b8280016001018555821562000177579182015b828111156200017657825182559160200191906001019062000159565b5b5090506200018691906200018a565b5090565b5b80821115620001a55760008160009055506001016200018b565b5090565b60006002820490506001821680620001c257607f821691505b60208210811415620001d957620001d8620001df565b5b50919050565b7f4e487b7100000000000000000000000000000000000000000000000000000000600052602260045260246000fd5b612f3b806200021e6000396000f3fe60806040526004361061011f5760003560e01c80636352211e116100a0578063b88d4fde11610064578063b88d4fde146103d6578063c87b56dd146103ff578063de74e57b1461043c578063e985e9c51461047c578063fe2635fa146104b95761011f565b80636352211e146102ec5780636fa830a61461032957806370a082311461034557806395d89b4114610382578063a22cb465146103ad5761011f565b806323b872dd116100e757806323b872dd1461021d57806340c10f191461024657806342842e0e1461026f578063481c6a75146102985780634eda529b146102c35761011f565b806301ffc9a71461012457806306fdde0314610161578063081812fc1461018c578063095ea7b3146101c957806318160ddd146101f2575b600080fd5b34801561013057600080fd5b5061014b6004803603810190610146919061217b565b6104e2565b60405161015891906125d6565b60405180910390f35b34801561016d57600080fd5b506101766105c4565b60405161018391906125f1565b60405180910390f35b34801561019857600080fd5b506101b360048036038101906101ae91906121cd565b610656565b6040516101c0919061256f565b60405180910390f35b3480156101d557600080fd5b506101f060048036038101906101eb919061213f565b61069c565b005b3480156101fe57600080fd5b506102076107b4565b60405161021491906127f3565b60405180910390f35b34801561022957600080fd5b50610244600480360381019061023f9190612039565b6107ba565b005b34801561025257600080fd5b5061026d6004803603810190610268919061213f565b61081a565b005b34801561027b57600080fd5b5061029660048036038101906102919190612039565b6108d0565b005b3480156102a457600080fd5b506102ad6108f0565b6040516102ba919061256f565b60405180910390f35b3480156102cf57600080fd5b506102ea60048036038101906102e59190612232565b610916565b005b3480156102f857600080fd5b50610313600480360381019061030e91906121cd565b610a75565b604051610320919061256f565b60405180910390f35b610343600480360381019061033e91906121cd565b610afc565b005b34801561035157600080fd5b5061036c60048036038101906103679190611fd4565b610c71565b60405161037991906127f3565b60405180910390f35b34801561038e57600080fd5b50610397610d29565b6040516103a491906125f1565b60405180910390f35b3480156103b957600080fd5b506103d460048036038101906103cf9190612103565b610dbb565b005b3480156103e257600080fd5b506103fd60048036038101906103f89190612088565b610dd1565b005b34801561040b57600080fd5b50610426600480360381019061042191906121cd565b610e33565b60405161043391906125f1565b60405180910390f35b34801561044857600080fd5b50610463600480360381019061045e91906121cd565b610e9b565b604051610473949392919061280e565b60405180910390f35b34801561048857600080fd5b506104a3600480360381019061049e9190611ffd565b610f05565b6040516104b091906125d6565b60405180910390f35b3480156104c557600080fd5b506104e060048036038101906104db91906121f6565b610f99565b005b60007f80ac58cd000000000000000000000000000000000000000000000000000000007bffffffffffffffffffffffffffffffffffffffffffffffffffffffff1916827bffffffffffffffffffffffffffffffffffffffffffffffffffffffff191614806105ad57507f5b5e139f000000000000000000000000000000000000000000000000000000007bffffffffffffffffffffffffffffffffffffffffffffffffffffffff1916827bffffffffffffffffffffffffffffffffffffffffffffffffffffffff1916145b806105bd57506105bc82611061565b5b9050919050565b6060600080546105d3906129a2565b80601f01602080910402602001604051908101604052809291908181526020018280546105ff906129a2565b801561064c5780601f106106215761010080835404028352916020019161064c565b820191906000526020600020905b81548152906001019060200180831161062f57829003601f168201915b5050505050905090565b6000610661826110cb565b6004600083815260200190815260200160002060009054906101000a900473ffffffffffffffffffffffffffffffffffffffff169050919050565b60006106a782610a75565b90508073ffffffffffffffffffffffffffffffffffffffff168373ffffffffffffffffffffffffffffffffffffffff161415610718576040517f08c379a000000000000000000000000000000000000000000000000000000000815260040161070f90612793565b60405180910390fd5b8073ffffffffffffffffffffffffffffffffffffffff16610737611116565b73ffffffffffffffffffffffffffffffffffffffff161480610766575061076581610760611116565b610f05565b5b6107a5576040517f08c379a000000000000000000000000000000000000000000000000000000000815260040161079c906127b3565b60405180910390fd5b6107af838361111e565b505050565b60065481565b6107cb6107c5611116565b826111d7565b61080a576040517f08c379a000000000000000000000000000000000000000000000000000000000815260040161080190612613565b60405180910390fd5b61081583838361126c565b505050565b600760009054906101000a900473ffffffffffffffffffffffffffffffffffffffff1673ffffffffffffffffffffffffffffffffffffffff163373ffffffffffffffffffffffffffffffffffffffff16146108aa576040517f08c379a00000000000000000000000000000000000000000000000000000000081526004016108a1906126f3565b60405180910390fd5b6108b48282611566565b600660008154809291906108c790612a05565b91905055505050565b6108eb83838360405180602001604052806000815250610dd1565b505050565b600760009054906101000a900473ffffffffffffffffffffffffffffffffffffffff1681565b3373ffffffffffffffffffffffffffffffffffffffff1661093683610a75565b73ffffffffffffffffffffffffffffffffffffffff161461098c576040517f08c379a000000000000000000000000000000000000000000000000000000000815260040161098390612753565b60405180910390fd5b6040518060800160405280828152602001600115158152602001600073ffffffffffffffffffffffffffffffffffffffff16815260200160001515815250600860008481526020019081526020016000206000820151816000015560208201518160010160006101000a81548160ff02191690831515021790555060408201518160010160016101000a81548173ffffffffffffffffffffffffffffffffffffffff021916908373ffffffffffffffffffffffffffffffffffffffff16021790555060608201518160010160156101000a81548160ff0219169083151502179055509050505050565b600080610a8183611784565b9050600073ffffffffffffffffffffffffffffffffffffffff168173ffffffffffffffffffffffffffffffffffffffff161415610af3576040517f08c379a0000000000000000000000000000000000000000000000000000000008152600401610aea90612773565b60405180910390fd5b80915050919050565b60006008600083815260200190815260200160002090508060010160009054906101000a900460ff16610b64576040517f08c379a0000000000000000000000000000000000000000000000000000000008152600401610b5b90612693565b60405180910390fd5b8060000154341015610bab576040517f08c379a0000000000000000000000000000000000000000000000000000000008152600401610ba2906127d3565b60405180910390fd5b60008160010160006101000a81548160ff021916908315150217905550338160010160016101000a81548173ffffffffffffffffffffffffffffffffffffffff021916908373ffffffffffffffffffffffffffffffffffffffff160217905550610c1e610c1783610a75565b338461126c565b610c2782610a75565b73ffffffffffffffffffffffffffffffffffffffff166108fc349081150290604051600060405180830381858888f19350505050158015610c6c573d6000803e3d6000fd5b505050565b60008073ffffffffffffffffffffffffffffffffffffffff168273ffffffffffffffffffffffffffffffffffffffff161415610ce2576040517f08c379a0000000000000000000000000000000000000000000000000000000008152600401610cd990612713565b60405180910390fd5b600360008373ffffffffffffffffffffffffffffffffffffffff1673ffffffffffffffffffffffffffffffffffffffff168152602001908152602001600020549050919050565b606060018054610d38906129a2565b80601f0160208091040260200160405190810160405280929190818152602001828054610d64906129a2565b8015610db15780601f10610d8657610100808354040283529160200191610db1565b820191906000526020600020905b815481529060010190602001808311610d9457829003601f168201915b5050505050905090565b610dcd610dc6611116565b83836117c1565b5050565b610de2610ddc611116565b836111d7565b610e21576040517f08c379a0000000000000000000000000000000000000000000000000000000008152600401610e1890612613565b60405180910390fd5b610e2d8484848461192e565b50505050565b6060610e3e826110cb565b6000610e4861198a565b90506000815111610e685760405180602001604052806000815250610e93565b80610e72846119a1565b604051602001610e8392919061254b565b6040516020818303038152906040525b915050919050565b60086020528060005260406000206000915090508060000154908060010160009054906101000a900460ff16908060010160019054906101000a900473ffffffffffffffffffffffffffffffffffffffff16908060010160159054906101000a900460ff16905084565b6000600560008473ffffffffffffffffffffffffffffffffffffffff1673ffffffffffffffffffffffffffffffffffffffff16815260200190815260200160002060008373ffffffffffffffffffffffffffffffffffffffff1673ffffffffffffffffffffffffffffffffffffffff16815260200190815260200160002060009054906101000a900460ff16905092915050565b600760009054906101000a900473ffffffffffffffffffffffffffffffffffffffff1673ffffffffffffffffffffffffffffffffffffffff163373ffffffffffffffffffffffffffffffffffffffff1614611029576040517f08c379a0000000000000000000000000000000000000000000000000000000008152600401611020906126f3565b60405180910390fd5b6000600860008481526020019081526020016000209050818160010160156101000a81548160ff021916908315150217905550505050565b60007f01ffc9a7000000000000000000000000000000000000000000000000000000007bffffffffffffffffffffffffffffffffffffffffffffffffffffffff1916827bffffffffffffffffffffffffffffffffffffffffffffffffffffffff1916149050919050565b6110d481611ac5565b611113576040517f08c379a000000000000000000000000000000000000000000000000000000000815260040161110a90612773565b60405180910390fd5b50565b600033905090565b816004600083815260200190815260200160002060006101000a81548173ffffffffffffffffffffffffffffffffffffffff021916908373ffffffffffffffffffffffffffffffffffffffff160217905550808273ffffffffffffffffffffffffffffffffffffffff1661119183610a75565b73ffffffffffffffffffffffffffffffffffffffff167f8c5be1e5ebec7d5bd14f71427d1e84f3dd0314c0f7b2291e5b200ac8c7c3b92560405160405180910390a45050565b6000806111e383610a75565b90508073ffffffffffffffffffffffffffffffffffffffff168473ffffffffffffffffffffffffffffffffffffffff16148061122557506112248185610f05565b5b8061126357508373ffffffffffffffffffffffffffffffffffffffff1661124b84610656565b73ffffffffffffffffffffffffffffffffffffffff16145b91505092915050565b8273ffffffffffffffffffffffffffffffffffffffff1661128c82610a75565b73ffffffffffffffffffffffffffffffffffffffff16146112e2576040517f08c379a00000000000000000000000000000000000000000000000000000000081526004016112d990612653565b60405180910390fd5b600073ffffffffffffffffffffffffffffffffffffffff168273ffffffffffffffffffffffffffffffffffffffff161415611352576040517f08c379a0000000000000000000000000000000000000000000000000000000008152600401611349906126b3565b60405180910390fd5b61135f8383836001611b06565b8273ffffffffffffffffffffffffffffffffffffffff1661137f82610a75565b73ffffffffffffffffffffffffffffffffffffffff16146113d5576040517f08c379a00000000000000000000000000000000000000000000000000000000081526004016113cc90612653565b60405180910390fd5b6004600082815260200190815260200160002060006101000a81549073ffffffffffffffffffffffffffffffffffffffff02191690556001600360008573ffffffffffffffffffffffffffffffffffffffff1673ffffffffffffffffffffffffffffffffffffffff168152602001908152602001600020600082825403925050819055506001600360008473ffffffffffffffffffffffffffffffffffffffff1673ffffffffffffffffffffffffffffffffffffffff16815260200190815260200160002060008282540192505081905550816002600083815260200190815260200160002060006101000a81548173ffffffffffffffffffffffffffffffffffffffff021916908373ffffffffffffffffffffffffffffffffffffffff160217905550808273ffffffffffffffffffffffffffffffffffffffff168473ffffffffffffffffffffffffffffffffffffffff167fddf252ad1be2c89b69c2b068fc378daa952ba7f163c4a11628f55a4df523b3ef60405160405180910390a46115618383836001611b0c565b505050565b600073ffffffffffffffffffffffffffffffffffffffff168273ffffffffffffffffffffffffffffffffffffffff1614156115d6576040517f08c379a00000000000000000000000000000000000000000000000000000000081526004016115cd90612733565b60405180910390fd5b6115df81611ac5565b1561161f576040517f08c379a000000000000000000000000000000000000000000000000000000000815260040161161690612673565b60405180910390fd5b61162d600083836001611b06565b61163681611ac5565b15611676576040517f08c379a000000000000000000000000000000000000000000000000000000000815260040161166d90612673565b60405180910390fd5b6001600360008473ffffffffffffffffffffffffffffffffffffffff1673ffffffffffffffffffffffffffffffffffffffff16815260200190815260200160002060008282540192505081905550816002600083815260200190815260200160002060006101000a81548173ffffffffffffffffffffffffffffffffffffffff021916908373ffffffffffffffffffffffffffffffffffffffff160217905550808273ffffffffffffffffffffffffffffffffffffffff16600073ffffffffffffffffffffffffffffffffffffffff167fddf252ad1be2c89b69c2b068fc378daa952ba7f163c4a11628f55a4df523b3ef60405160405180910390a4611780600083836001611b0c565b5050565b60006002600083815260200190815260200160002060009054906101000a900473ffffffffffffffffffffffffffffffffffffffff169050919050565b8173ffffffffffffffffffffffffffffffffffffffff168373ffffffffffffffffffffffffffffffffffffffff161415611830576040517f08c379a0000000000000000000000000000000000000000000000000000000008152600401611827906126d3565b60405180910390fd5b80600560008573ffffffffffffffffffffffffffffffffffffffff1673ffffffffffffffffffffffffffffffffffffffff16815260200190815260200160002060008473ffffffffffffffffffffffffffffffffffffffff1673ffffffffffffffffffffffffffffffffffffffff16815260200190815260200160002060006101000a81548160ff0219169083151502179055508173ffffffffffffffffffffffffffffffffffffffff168373ffffffffffffffffffffffffffffffffffffffff167f17307eab39ab6107e8899845ad3d59bd9653f200f220920489ca2b5937696c318360405161192191906125d6565b60405180910390a3505050565b61193984848461126c565b61194584848484611b12565b611984576040517f08c379a000000000000000000000000000000000000000000000000000000000815260040161197b90612633565b60405180910390fd5b50505050565b606060405180602001604052806000815250905090565b6060600060016119b084611ca9565b01905060008167ffffffffffffffff8111156119f5577f4e487b7100000000000000000000000000000000000000000000000000000000600052604160045260246000fd5b6040519080825280601f01601f191660200182016040528015611a275781602001600182028036833780820191505090505b509050600082602001820190505b600115611aba578080600190039150507f3031323334353637383961626364656600000000000000000000000000000000600a86061a8153600a8581611aa4577f4e487b7100000000000000000000000000000000000000000000000000000000600052601260045260246000fd5b0494506000851415611ab557611aba565b611a35565b819350505050919050565b60008073ffffffffffffffffffffffffffffffffffffffff16611ae783611784565b73ffffffffffffffffffffffffffffffffffffffff1614159050919050565b50505050565b50505050565b6000611b338473ffffffffffffffffffffffffffffffffffffffff16611ee0565b15611c9c578373ffffffffffffffffffffffffffffffffffffffff1663150b7a02611b5c611116565b8786866040518563ffffffff1660e01b8152600401611b7e949392919061258a565b602060405180830381600087803b158015611b9857600080fd5b505af1925050508015611bc957506040513d601f19601f82011682018060405250810190611bc691906121a4565b60015b611c4c573d8060008114611bf9576040519150601f19603f3d011682016040523d82523d6000602084013e611bfe565b606091505b50600081511415611c44576040517f08c379a0000000000000000000000000000000000000000000000000000000008152600401611c3b90612633565b60405180910390fd5b805181602001fd5b63150b7a0260e01b7bffffffffffffffffffffffffffffffffffffffffffffffffffffffff1916817bffffffffffffffffffffffffffffffffffffffffffffffffffffffff191614915050611ca1565b600190505b949350505050565b600080600090507a184f03e93ff9f4daa797ed6e38ed64bf6a1f0100000000000000008310611d2d577a184f03e93ff9f4daa797ed6e38ed64bf6a1f0100000000000000008381611d23577f4e487b7100000000000000000000000000000000000000000000000000000000600052601260045260246000fd5b0492506040810190505b6d04ee2d6d415b85acef81000000008310611d90576d04ee2d6d415b85acef81000000008381611d86577f4e487b7100000000000000000000000000000000000000000000000000000000600052601260045260246000fd5b0492506020810190505b662386f26fc100008310611de557662386f26fc100008381611ddb577f4e487b7100000000000000000000000000000000000000000000000000000000600052601260045260246000fd5b0492506010810190505b6305f5e1008310611e34576305f5e1008381611e2a577f4e487b7100000000000000000000000000000000000000000000000000000000600052601260045260246000fd5b0492506008810190505b6127108310611e7f576127108381611e75577f4e487b7100000000000000000000000000000000000000000000000000000000600052601260045260246000fd5b0492506004810190505b60648310611ec85760648381611ebe577f4e487b7100000000000000000000000000000000000000000000000000000000600052601260045260246000fd5b0492506002810190505b600a8310611ed7576001810190505b80915050919050565b6000808273ffffffffffffffffffffffffffffffffffffffff163b119050919050565b6000611f16611f1184612878565b612853565b905082815260208101848484011115611f2e57600080fd5b611f39848285612960565b509392505050565b600081359050611f5081612ea9565b92915050565b600081359050611f6581612ec0565b92915050565b600081359050611f7a81612ed7565b92915050565b600081519050611f8f81612ed7565b92915050565b600082601f830112611fa657600080fd5b8135611fb6848260208601611f03565b91505092915050565b600081359050611fce81612eee565b92915050565b600060208284031215611fe657600080fd5b6000611ff484828501611f41565b91505092915050565b6000806040838503121561201057600080fd5b600061201e85828601611f41565b925050602061202f85828601611f41565b9150509250929050565b60008060006060848603121561204e57600080fd5b600061205c86828701611f41565b935050602061206d86828701611f41565b925050604061207e86828701611fbf565b9150509250925092565b6000806000806080858703121561209e57600080fd5b60006120ac87828801611f41565b94505060206120bd87828801611f41565b93505060406120ce87828801611fbf565b925050606085013567ffffffffffffffff8111156120eb57600080fd5b6120f787828801611f95565b91505092959194509250565b6000806040838503121561211657600080fd5b600061212485828601611f41565b925050602061213585828601611f56565b9150509250929050565b6000806040838503121561215257600080fd5b600061216085828601611f41565b925050602061217185828601611fbf565b9150509250929050565b60006020828403121561218d57600080fd5b600061219b84828501611f6b565b91505092915050565b6000602082840312156121b657600080fd5b60006121c484828501611f80565b91505092915050565b6000602082840312156121df57600080fd5b60006121ed84828501611fbf565b91505092915050565b6000806040838503121561220957600080fd5b600061221785828601611fbf565b925050602061222885828601611f56565b9150509250929050565b6000806040838503121561224557600080fd5b600061225385828601611fbf565b925050602061226485828601611fbf565b9150509250929050565b612277816128ec565b82525050565b612286816128fe565b82525050565b6000612297826128a9565b6122a181856128bf565b93506122b181856020860161296f565b6122ba81612adb565b840191505092915050565b60006122d0826128b4565b6122da81856128d0565b93506122ea81856020860161296f565b6122f381612adb565b840191505092915050565b6000612309826128b4565b61231381856128e1565b935061232381856020860161296f565b80840191505092915050565b600061233c602d836128d0565b915061234782612aec565b604082019050919050565b600061235f6032836128d0565b915061236a82612b3b565b604082019050919050565b60006123826025836128d0565b915061238d82612b8a565b604082019050919050565b60006123a5601c836128d0565b91506123b082612bd9565b602082019050919050565b60006123c8601f836128d0565b91506123d382612c02565b602082019050919050565b60006123eb6024836128d0565b91506123f682612c2b565b604082019050919050565b600061240e6019836128d0565b915061241982612c7a565b602082019050919050565b60006124316024836128d0565b915061243c82612ca3565b604082019050919050565b60006124546029836128d0565b915061245f82612cf2565b604082019050919050565b60006124776020836128d0565b915061248282612d41565b602082019050919050565b600061249a6026836128d0565b91506124a582612d6a565b604082019050919050565b60006124bd6018836128d0565b91506124c882612db9565b602082019050919050565b60006124e06021836128d0565b91506124eb82612de2565b604082019050919050565b6000612503603d836128d0565b915061250e82612e31565b604082019050919050565b60006125266017836128d0565b915061253182612e80565b602082019050919050565b61254581612956565b82525050565b600061255782856122fe565b915061256382846122fe565b91508190509392505050565b6000602082019050612584600083018461226e565b92915050565b600060808201905061259f600083018761226e565b6125ac602083018661226e565b6125b9604083018561253c565b81810360608301526125cb818461228c565b905095945050505050565b60006020820190506125eb600083018461227d565b92915050565b6000602082019050818103600083015261260b81846122c5565b905092915050565b6000602082019050818103600083015261262c8161232f565b9050919050565b6000602082019050818103600083015261264c81612352565b9050919050565b6000602082019050818103600083015261266c81612375565b9050919050565b6000602082019050818103600083015261268c81612398565b9050919050565b600060208201905081810360008301526126ac816123bb565b9050919050565b600060208201905081810360008301526126cc816123de565b9050919050565b600060208201905081810360008301526126ec81612401565b9050919050565b6000602082019050818103600083015261270c81612424565b9050919050565b6000602082019050818103600083015261272c81612447565b9050919050565b6000602082019050818103600083015261274c8161246a565b9050919050565b6000602082019050818103600083015261276c8161248d565b9050919050565b6000602082019050818103600083015261278c816124b0565b9050919050565b600060208201905081810360008301526127ac816124d3565b9050919050565b600060208201905081810360008301526127cc816124f6565b9050919050565b600060208201905081810360008301526127ec81612519565b9050919050565b6000602082019050612808600083018461253c565b92915050565b6000608082019050612823600083018761253c565b612830602083018661227d565b61283d604083018561226e565b61284a606083018461227d565b95945050505050565b600061285d61286e565b905061286982826129d4565b919050565b6000604051905090565b600067ffffffffffffffff82111561289357612892612aac565b5b61289c82612adb565b9050602081019050919050565b600081519050919050565b600081519050919050565b600082825260208201905092915050565b600082825260208201905092915050565b600081905092915050565b60006128f782612936565b9050919050565b60008115159050919050565b60007fffffffff0000000000000000000000000000000000000000000000000000000082169050919050565b600073ffffffffffffffffffffffffffffffffffffffff82169050919050565b6000819050919050565b82818337600083830152505050565b60005b8381101561298d578082015181840152602081019050612972565b8381111561299c576000848401525b50505050565b600060028204905060018216806129ba57607f821691505b602082108114156129ce576129cd612a7d565b5b50919050565b6129dd82612adb565b810181811067ffffffffffffffff821117156129fc576129fb612aac565b5b80604052505050565b6000612a1082612956565b91507fffffffffffffffffffffffffffffffffffffffffffffffffffffffffffffffff821415612a4357612a42612a4e565b5b600182019050919050565b7f4e487b7100000000000000000000000000000000000000000000000000000000600052601160045260246000fd5b7f4e487b7100000000000000000000000000000000000000000000000000000000600052602260045260246000fd5b7f4e487b7100000000000000000000000000000000000000000000000000000000600052604160045260246000fd5b6000601f19601f8301169050919050565b7f4552433732313a2063616c6c6572206973206e6f7420746f6b656e206f776e6560008201527f72206f7220617070726f76656400000000000000000000000000000000000000602082015250565b7f4552433732313a207472616e7366657220746f206e6f6e20455243373231526560008201527f63656976657220696d706c656d656e7465720000000000000000000000000000602082015250565b7f4552433732313a207472616e736665722066726f6d20696e636f72726563742060008201527f6f776e6572000000000000000000000000000000000000000000000000000000602082015250565b7f4552433732313a20746f6b656e20616c7265616479206d696e74656400000000600082015250565b7f50726f7065727479206973206e6f74206c697374656420666f722073616c6500600082015250565b7f4552433732313a207472616e7366657220746f20746865207a65726f2061646460008201527f7265737300000000000000000000000000000000000000000000000000000000602082015250565b7f4552433732313a20617070726f766520746f2063616c6c657200000000000000600082015250565b7f4f6e6c79206d616e616765722063616e20706572666f726d207468697320616360008201527f74696f6e00000000000000000000000000000000000000000000000000000000602082015250565b7f4552433732313a2061646472657373207a65726f206973206e6f74206120766160008201527f6c6964206f776e65720000000000000000000000000000000000000000000000602082015250565b7f4552433732313a206d696e7420746f20746865207a65726f2061646472657373600082015250565b7f596f7520617265206e6f7420746865206f776e6572206f66207468697320707260008201527f6f70657274790000000000000000000000000000000000000000000000000000602082015250565b7f4552433732313a20696e76616c696420746f6b656e2049440000000000000000600082015250565b7f4552433732313a20617070726f76616c20746f2063757272656e74206f776e6560008201527f7200000000000000000000000000000000000000000000000000000000000000602082015250565b7f4552433732313a20617070726f76652063616c6c6572206973206e6f7420746f60008201527f6b656e206f776e6572206f7220617070726f76656420666f7220616c6c000000602082015250565b7f496e73756666696369656e742066756e64732073656e74000000000000000000600082015250565b612eb2816128ec565b8114612ebd57600080fd5b50565b612ec9816128fe565b8114612ed457600080fd5b50565b612ee08161290a565b8114612eeb57600080fd5b50565b612ef781612956565b8114612f0257600080fd5b5056fea26469706673582212207c63cf5815671435cfae6d74f11c25eb892029e6dca943b141791032993f1f2264736f6c63430008010033",
  "immutableReferences": {},
  "source": "// SPDX-License-Identifier: MIT\npragma solidity ^0.8.0;\n\nimport \"@openzeppelin/contracts/token/ERC721/ERC721.sol\";\n\ncontract RealEstateEscrow is ERC721 {\n    // State variables\n    uint public totalSupply; // Total number of minted tokens\n    address public manager; // Address of the manager who can perform administrative actions\n\n    // Struct to store listing information for each token\n    struct Listing {\n        uint price; // Listing price of the property\n        bool isListed; // Flag indicating if the property is listed for sale\n        address buyer; // Address of the buyer who bought the property\n        bool inspectionPassed; // Flag indicating if the property has passed inspection\n    }\n\n\n    // Mapping to store listings for each token ID\n    mapping(uint => Listing) public listings;\n\n    // Constructor to initialize the contract with a name and symbol\n    constructor() ERC721(\"Real Estate\", \"REAL\") {\n        manager = msg.sender; // Set the manager as the contract deployer\n    }\n\n    // Modifier to restrict access to only the manager\n    modifier onlyManager() {\n        require(msg.sender == manager, \"Only manager can perform this action\");\n        _;\n    }\n\n    // Function to mint new NFTs (only accessible by the manager)\n    function mint(address to, uint tokenId) external onlyManager {\n        _mint(to, tokenId); // Mint a new NFT and assign it to the specified address\n        totalSupply++; // Increment the total supply of tokens\n    }\n\n    // Function to list a property for sale\n    function listProperty(uint tokenId, uint price) external {\n        require(ownerOf(tokenId) == msg.sender, \"You are not the owner of this property\");\n        listings[tokenId] = Listing(price, true, address(0), false); // Create a new listing\n    }\n\n    // Function to buy a property listed for sale\n    function buyProperty(uint tokenId) external payable {\n        Listing storage listing = listings[tokenId]; // Get the listing for the token\n        require(listing.isListed, \"Property is not listed for sale\");\n        require(msg.value >= listing.price, \"Insufficient funds sent\");\n\n        listing.isListed = false; // Mark the property as no longer listed\n        listing.buyer = msg.sender; // Set the buyer of the property\n\n        _transfer(ownerOf(tokenId), msg.sender, tokenId); // Transfer ownership of the token\n        payable(ownerOf(tokenId)).transfer(msg.value); // Transfer funds to the seller\n    }\n\n    // Function to set the inspection status of a property (only accessible by the manager)\n    function setInspectionStatus(uint tokenId, bool passed) external onlyManager {\n        Listing storage listing = listings[tokenId]; // Get the listing for the token\n        listing.inspectionPassed = passed; // Set the inspection status\n    }\n}",
  "sourcePath": "/home/ali/College/RealEsateSolidity/contracts/RealEstateEscrow.sol",
  "compiler": {
    "name": "solc",
    "version": "0.8.1+commit.df193b15.Emscripten.clang"
  },
  "schemaVersion": "3.4.16",
  "updatedAt": "2024-05-20T07:29:22.999Z",
  "networkType": "ethereum",
  "devdoc": {
    "kind": "dev",
    "methods": {
      "approve(address,uint256)": {
        "details": "See {IERC721-approve}."
      },
      "balanceOf(address)": {
        "details": "See {IERC721-balanceOf}."
      },
      "getApproved(uint256)": {
        "details": "See {IERC721-getApproved}."
      },
      "isApprovedForAll(address,address)": {
        "details": "See {IERC721-isApprovedForAll}."
      },
      "name()": {
        "details": "See {IERC721Metadata-name}."
      },
      "ownerOf(uint256)": {
        "details": "See {IERC721-ownerOf}."
      },
      "safeTransferFrom(address,address,uint256)": {
        "details": "See {IERC721-safeTransferFrom}."
      },
      "safeTransferFrom(address,address,uint256,bytes)": {
        "details": "See {IERC721-safeTransferFrom}."
      },
      "setApprovalForAll(address,bool)": {
        "details": "See {IERC721-setApprovalForAll}."
      },
      "supportsInterface(bytes4)": {
        "details": "See {IERC165-supportsInterface}."
      },
      "symbol()": {
        "details": "See {IERC721Metadata-symbol}."
      },
      "tokenURI(uint256)": {
        "details": "See {IERC721Metadata-tokenURI}."
      },
      "transferFrom(address,address,uint256)": {
        "details": "See {IERC721-transferFrom}."
      }
    },
    "version": 1
  },
  "userdoc": {
    "kind": "user",
    "methods": {},
    "version": 1
  }
}